{
  "contractName": "textTrans",
  "abi": [
    {
      "anonymous": false,
      "inputs": [
        {
          "indexed": true,
          "internalType": "address",
          "name": "_from",
          "type": "address"
        },
        {
          "indexed": true,
          "internalType": "address",
          "name": "_to",
          "type": "address"
        },
        {
          "indexed": false,
          "internalType": "string",
          "name": "data",
          "type": "string"
        }
      ],
      "name": "transfer",
      "type": "event"
    },
    {
      "constant": false,
      "inputs": [
        {
          "internalType": "address",
          "name": "_from",
          "type": "address"
        },
        {
          "internalType": "address",
          "name": "_to",
          "type": "address"
        },
        {
          "internalType": "string",
          "name": "name",
          "type": "string"
        }
      ],
      "name": "sendData",
      "outputs": [],
      "payable": false,
      "stateMutability": "nonpayable",
      "type": "function"
    },
    {
      "constant": true,
      "inputs": [
        {
          "internalType": "address",
          "name": "add",
          "type": "address"
        }
      ],
      "name": "displayData",
      "outputs": [
        {
          "internalType": "string",
          "name": "",
          "type": "string"
        }
      ],
      "payable": false,
      "stateMutability": "view",
      "type": "function"
    }
  ],
  "bytecode": "0x608060405234801561001057600080fd5b5061051f806100206000396000f3fe608060405234801561001057600080fd5b50600436106100365760003560e01c80632b389aee1461003b57806394ba3b3f14610136575b600080fd5b6101346004803603606081101561005157600080fd5b81019080803573ffffffffffffffffffffffffffffffffffffffff169060200190929190803573ffffffffffffffffffffffffffffffffffffffff169060200190929190803590602001906401000000008111156100ae57600080fd5b8201836020820111156100c057600080fd5b803590602001918460018302840111640100000000831117156100e257600080fd5b91908080601f016020809104026020016040519081016040528093929190818152602001838380828437600081840152601f19601f8201169050808301925050505050505091929192905050506101f3565b005b6101786004803603602081101561014c57600080fd5b81019080803573ffffffffffffffffffffffffffffffffffffffff16906020019092919050505061035e565b6040518080602001828103825283818151815260200191508051906020019080838360005b838110156101b857808201518184015260208101905061019d565b50505050905090810190601f1680156101e55780820380516001836020036101000a031916815260200191505b509250505060405180910390f35b6000808473ffffffffffffffffffffffffffffffffffffffff1673ffffffffffffffffffffffffffffffffffffffff1681526020019081526020016000206000808473ffffffffffffffffffffffffffffffffffffffff1673ffffffffffffffffffffffffffffffffffffffff168152602001908152602001600020908054600181600116156101000203166002900461028e92919061043e565b508173ffffffffffffffffffffffffffffffffffffffff168373ffffffffffffffffffffffffffffffffffffffff167f397bfa92e9c239335555a279d20f64ff4ae2e49115f8141cfe1a8ed8993c1c94836040518080602001828103825283818151815260200191508051906020019080838360005b8381101561031f578082015181840152602081019050610304565b50505050905090810190601f16801561034c5780820380516001836020036101000a031916815260200191505b509250505060405180910390a3505050565b60606000808373ffffffffffffffffffffffffffffffffffffffff1673ffffffffffffffffffffffffffffffffffffffff1681526020019081526020016000208054600181600116156101000203166002900480601f0160208091040260200160405190810160405280929190818152602001828054600181600116156101000203166002900480156104325780601f1061040757610100808354040283529160200191610432565b820191906000526020600020905b81548152906001019060200180831161041557829003601f168201915b50505050509050919050565b828054600181600116156101000203166002900490600052602060002090601f016020900481019282601f1061047757805485556104b4565b828001600101855582156104b457600052602060002091601f016020900482015b828111156104b3578254825591600101919060010190610498565b5b5090506104c191906104c5565b5090565b6104e791905b808211156104e35760008160009055506001016104cb565b5090565b9056fea265627a7a7231582091c1260042c828b83fdf3ccf6c2c3a8a2967e3a229e3db89c1a9e557f087ba9664736f6c63430005100032",
  "source": "//SPDX-License-Identifier: MIT\npragma solidity >0.5.2;\n\ncontract textTrans {\n\n  mapping(address => string) data;\n\n  event transfer(\n    address indexed _from,\n    address indexed _to,\n    string  data\n  );\n\n /*function getData() public view returns(string memory){\n    return  name;\n  } \n\n  function setData(string memory newName) public{\n    name = newName;\n  }*/ \n\n  function sendData(address _from,address _to,string memory name) public {\n    data[_to] = data[_from];\n    \n    emit transfer(_from,_to,name);\n\n}\n\nfunction displayData(address add) public view returns(string memory){\n  return data[add];\n}\n\n}\n",
  "sourcePath": "/home/ajay/Desktop/BlockChain/DApp_textTrans/contracts/textTrans.sol",
  "compiler": {
    "name": "solc",
    "version": "0.5.16+commit.9c3226ce.Emscripten.clang"
  },
  "schemaVersion": "3.2.0",
  "updatedAt": "2020-09-10T12:23:51.950Z",
  "networkType": "ethereum",
  "devdoc": {
    "methods": {}
  },
  "userdoc": {
    "methods": {}
  }
}