{
  "contractName": "Messenger",
  "abi": [
    {
      "constant": false,
      "inputs": [
        {
          "internalType": "address",
          "name": "_recipient",
          "type": "address"
        },
        {
          "internalType": "string",
          "name": "_message",
          "type": "string"
        }
      ],
      "name": "sendMessage",
      "outputs": [],
      "payable": false,
      "stateMutability": "nonpayable",
      "type": "function"
    },
    {
      "constant": true,
      "inputs": [],
      "name": "readMessage",
      "outputs": [
        {
          "internalType": "string",
          "name": "",
          "type": "string"
        }
      ],
      "payable": false,
      "stateMutability": "view",
      "type": "function"
    }
  ],
  "bytecode": "0x608060405234801561001057600080fd5b506103a8806100206000396000f3fe608060405234801561001057600080fd5b50600436106100365760003560e01c8063031d5d011461003b578063de6f24bb146100be575b600080fd5b610043610199565b6040518080602001828103825283818151815260200191508051906020019080838360005b83811015610083578082015181840152602081019050610068565b50505050905090810190601f1680156100b05780820380516001836020036101000a031916815260200191505b509250505060405180910390f35b610197600480360360408110156100d457600080fd5b81019080803573ffffffffffffffffffffffffffffffffffffffff1690602001909291908035906020019064010000000081111561011157600080fd5b82018360208201111561012357600080fd5b8035906020019184600183028401116401000000008311171561014557600080fd5b91908080601f016020809104026020016040519081016040528093929190818152602001838380828437600081840152601f19601f820116905080830192505050505050509192919290505050610277565b005b60606000803373ffffffffffffffffffffffffffffffffffffffff1673ffffffffffffffffffffffffffffffffffffffff1681526020019081526020016000208054600181600116156101000203166002900480601f01602080910402602001604051908101604052809291908181526020018280546001816001161561010002031660029004801561026d5780601f106102425761010080835404028352916020019161026d565b820191906000526020600020905b81548152906001019060200180831161025057829003601f168201915b5050505050905090565b806000808473ffffffffffffffffffffffffffffffffffffffff1673ffffffffffffffffffffffffffffffffffffffff16815260200190815260200160002090805190602001906102c99291906102ce565b505050565b828054600181600116156101000203166002900490600052602060002090601f016020900481019282601f1061030f57805160ff191683800117855561033d565b8280016001018555821561033d579182015b8281111561033c578251825591602001919060010190610321565b5b50905061034a919061034e565b5090565b61037091905b8082111561036c576000816000905550600101610354565b5090565b9056fea265627a7a72315820b6671eff7eba16ba473b0ffb3e959aeb3de03d5a237eb57046cf805d1584002b64736f6c63430005100032",
  "source": "//SPDX-License-Identifier: MIT\npragma solidity >= 0.5.2;\n\n\ncontract Messenger {\n\n  mapping (address => string) message;\n\n  function sendMessage(address _recipient, string memory _message) public{\n    message[_recipient] = _message;\n  }\n\n  function readMessage() view public returns (string memory){\n    return message[msg.sender];\n  }\n\n}\n\ncontract reader{\n    mapping (address => string) data;\n    function readData(address myaddress) public returns(string memory){\n    }\n}",
  "sourcePath": "/home/ajay/Desktop/BlockChain/textTrans/contracts/textTrans.sol",
  "compiler": {
    "name": "solc",
    "version": "0.5.16+commit.9c3226ce.Emscripten.clang"
  },
  "schemaVersion": "3.2.0",
  "updatedAt": "2020-10-06T18:37:45.057Z",
  "devdoc": {
    "methods": {}
  },
  "userdoc": {
    "methods": {}
  }
}