{
  "contractName": "reader",
  "abi": [
    {
      "constant": false,
      "inputs": [
        {
          "internalType": "address",
          "name": "myaddress",
          "type": "address"
        }
      ],
      "name": "readData",
      "outputs": [
        {
          "internalType": "string",
          "name": "",
          "type": "string"
        }
      ],
      "payable": false,
      "stateMutability": "nonpayable",
      "type": "function"
    }
  ],
  "bytecode": "0x608060405234801561001057600080fd5b50610120806100206000396000f3fe6080604052348015600f57600080fd5b506004361060285760003560e01c8063030e7a3314602d575b600080fd5b606c60048036036020811015604157600080fd5b81019080803573ffffffffffffffffffffffffffffffffffffffff16906020019092919050505060e4565b6040518080602001828103825283818151815260200191508051906020019080838360005b8381101560aa5780820151818401526020810190506091565b50505050905090810190601f16801560d65780820380516001836020036101000a031916815260200191505b509250505060405180910390f35b606091905056fea265627a7a72315820862492e972c712a5342d79c2b73679695379a6b33afbbc868f0c3458ac46c93c64736f6c63430005100032",
  "source": "//SPDX-License-Identifier: MIT\npragma solidity >= 0.5.2;\n\n\ncontract Messenger {\n\n  mapping (address => string) message;\n\n  function sendMessage(address _recipient, string memory _message) public{\n    message[_recipient] = _message;\n  }\n\n  function readMessage() view public returns (string memory){\n    return message[msg.sender];\n  }\n\n}\n\ncontract reader{\n    mapping (address => string) data;\n    function readData(address myaddress) public returns(string memory){\n    }\n}",
  "sourcePath": "/home/ajay/Desktop/BlockChain/textTrans/contracts/textTrans.sol",
  "compiler": {
    "name": "solc",
    "version": "0.5.16+commit.9c3226ce.Emscripten.clang"
  },
  "schemaVersion": "3.2.0",
  "updatedAt": "2020-10-06T18:37:45.095Z",
  "devdoc": {
    "methods": {}
  },
  "userdoc": {
    "methods": {}
  }
}