{
  "contractName": "textTrans",
  "abi": [
    {
      "anonymous": false,
      "inputs": [
        {
          "indexed": false,
          "internalType": "uint256",
          "name": "id",
          "type": "uint256"
        },
        {
          "indexed": false,
          "internalType": "string",
          "name": "name",
          "type": "string"
        }
      ],
      "name": "transfer",
      "type": "event"
    },
    {
      "constant": true,
      "inputs": [
        {
          "internalType": "uint256",
          "name": "",
          "type": "uint256"
        }
      ],
      "name": "Trans",
      "outputs": [
        {
          "internalType": "uint256",
          "name": "id",
          "type": "uint256"
        },
        {
          "internalType": "string",
          "name": "name",
          "type": "string"
        }
      ],
      "payable": false,
      "stateMutability": "view",
      "type": "function"
    },
    {
      "constant": false,
      "inputs": [
        {
          "internalType": "string",
          "name": "name",
          "type": "string"
        }
      ],
      "name": "create",
      "outputs": [],
      "payable": false,
      "stateMutability": "nonpayable",
      "type": "function"
    },
    {
      "constant": true,
      "inputs": [
        {
          "internalType": "uint256",
          "name": "id",
          "type": "uint256"
        }
      ],
      "name": "read",
      "outputs": [
        {
          "internalType": "uint256",
          "name": "",
          "type": "uint256"
        },
        {
          "internalType": "string",
          "name": "",
          "type": "string"
        }
      ],
      "payable": false,
      "stateMutability": "view",
      "type": "function"
    },
    {
      "constant": false,
      "inputs": [
        {
          "internalType": "uint256",
          "name": "id",
          "type": "uint256"
        },
        {
          "internalType": "string",
          "name": "data",
          "type": "string"
        }
      ],
      "name": "sendData",
      "outputs": [
        {
          "internalType": "string",
          "name": "name",
          "type": "string"
        }
      ],
      "payable": false,
      "stateMutability": "nonpayable",
      "type": "function"
    }
  ],
  "bytecode": "0x6080604052600160005534801561001557600080fd5b506108e3806100256000396000f3fe608060405234801561001057600080fd5b506004361061004c5760003560e01c80634d87dd2e1461005157806380f2b6e8146100ff578063b6a46b3b1461023d578063ed2e5a97146102f8575b600080fd5b61007d6004803603602081101561006757600080fd5b81019080803590602001909291905050506103a6565b6040518083815260200180602001828103825283818151815260200191508051906020019080838360005b838110156100c35780820151818401526020810190506100a8565b50505050905090810190601f1680156100f05780820380516001836020036101000a031916815260200191505b50935050505060405180910390f35b6101c26004803603604081101561011557600080fd5b81019080803590602001909291908035906020019064010000000081111561013c57600080fd5b82018360208201111561014e57600080fd5b8035906020019184600183028401116401000000008311171561017057600080fd5b91908080601f016020809104026020016040519081016040528093929190818152602001838380828437600081840152601f19601f82011690508083019250505050505050919291929050505061046f565b6040518080602001828103825283818151815260200191508051906020019080838360005b838110156102025780820151818401526020810190506101e7565b50505050905090810190601f16801561022f5780820380516001836020036101000a031916815260200191505b509250505060405180910390f35b6102f66004803603602081101561025357600080fd5b810190808035906020019064010000000081111561027057600080fd5b82018360208201111561028257600080fd5b803590602001918460018302840111640100000000831117156102a457600080fd5b91908080601f016020809104026020016040519081016040528093929190818152602001838380828437600081840152601f19601f82011690508083019250505050505050919291929050505061054e565b005b6103246004803603602081101561030e57600080fd5b81019080803590602001909291905050506105d0565b6040518083815260200180602001828103825283818151815260200191508051906020019080838360005b8381101561036a57808201518184015260208101905061034f565b50505050905090810190601f1680156103975780820380516001836020036101000a031916815260200191505b50935050505060405180910390f35b600181815481106103b357fe5b9060005260206000209060020201600091509050806000015490806001018054600181600116156101000203166002900480601f0160208091040260200160405190810160405280929190818152602001828054600181600116156101000203166002900480156104655780601f1061043a57610100808354040283529160200191610465565b820191906000526020600020905b81548152906001019060200180831161044857829003601f168201915b5050505050905082565b6060806001848154811061047f57fe5b906000526020600020906002020160010190805190602001906104a3929190610789565b507fca32ab862ad4330122497db879e5aafa000c3ec8eb3e63f95631b3c73d9a90d083826040518083815260200180602001828103825283818151815260200191508051906020019080838360005b8381101561050d5780820151818401526020810190506104f2565b50505050905090810190601f16801561053a5780820380516001836020036101000a031916815260200191505b50935050505060405180910390a192915050565b60016040518060400160405280600054815260200183815250908060018154018082558091505090600182039060005260206000209060020201600090919290919091506000820151816000015560208201518160010190805190602001906105b8929190610809565b50505050600080815480929190600101919050555050565b6000606060006105df846106c4565b9050600181815481106105ee57fe5b9060005260206000209060020201600001546001828154811061060d57fe5b9060005260206000209060020201600101808054600181600116156101000203166002900480601f0160208091040260200160405190810160405280929190818152602001828054600181600116156101000203166002900480156106b35780601f10610688576101008083540402835291602001916106b3565b820191906000526020600020905b81548152906001019060200180831161069657829003601f168201915b505050505090509250925050915091565b600080600090505b6001805490508110156107155782600182815481106106e757fe5b90600052602060002090600202016000015414156107085780915050610784565b80806001019150506106cc565b506040517f08c379a00000000000000000000000000000000000000000000000000000000081526004018080602001828103825260128152602001807f55736572206973206e6f7420666f756e6421000000000000000000000000000081525060200191505060405180910390fd5b919050565b828054600181600116156101000203166002900490600052602060002090601f016020900481019282601f106107ca57805160ff19168380011785556107f8565b828001600101855582156107f8579182015b828111156107f75782518255916020019190600101906107dc565b5b5090506108059190610889565b5090565b828054600181600116156101000203166002900490600052602060002090601f016020900481019282601f1061084a57805160ff1916838001178555610878565b82800160010185558215610878579182015b8281111561087757825182559160200191906001019061085c565b5b5090506108859190610889565b5090565b6108ab91905b808211156108a757600081600090555060010161088f565b5090565b9056fea265627a7a72315820ada8b2fe1bd2dbb36bdeea8f27af117957be4ceacb8a4279d97e7ece6a1717bc64736f6c63430005100032",
  "source": "//SPDX-License-Identifier: MIT\npragma solidity >= 0.5.2;\n\ncontract textTrans{\n  struct trans{\n    uint id;\n    string name;\n  }\n  uint nextId = 1;\n  trans[] public Trans;\n\n  event transfer(\n    uint id,\n    string name\n  );\n  function create(string memory name) public {\n    Trans.push(trans(nextId,name));\n    nextId++;\n  }\n  function read(uint id) view public returns(uint,string memory){\n    uint i = find(id);\n    return (Trans[i].id,Trans[i].name);\n  }\n\n\n  function sendData(uint id,string memory data) public returns(string memory name){\n    Trans[id].name = name;\n    emit transfer(id,name);\n  }\n\n\n  function find(uint id) view internal returns(uint){\n    for(uint i = 0;i<Trans.length;i++){\n      if(Trans[i].id == id){\n        return i;\n      }\n    }\n    revert(\"User is not found!\");\n  }\n\n\n\n}\n",
  "sourcePath": "/home/ajay/Desktop/BlockChain/textTrans/contracts/textTrans.sol",
  "compiler": {
    "name": "solc",
    "version": "0.5.16+commit.9c3226ce.Emscripten.clang"
  },
  "schemaVersion": "3.2.0",
  "updatedAt": "2020-09-20T13:09:37.727Z",
  "networkType": "ethereum",
  "devdoc": {
    "methods": {}
  },
  "userdoc": {
    "methods": {}
  }
}