{
  "contractName": "textTrans",
  "abi": [
    {
      "anonymous": false,
      "inputs": [
        {
          "indexed": false,
          "internalType": "address",
          "name": "addr1",
          "type": "address"
        },
        {
          "indexed": false,
          "internalType": "address",
          "name": "addr2",
          "type": "address"
        },
        {
          "indexed": false,
          "internalType": "string",
          "name": "message",
          "type": "string"
        }
      ],
      "name": "send",
      "type": "event"
    },
    {
      "constant": false,
      "inputs": [],
      "name": "sendData",
      "outputs": [],
      "payable": false,
      "stateMutability": "nonpayable",
      "type": "function"
    }
  ],
  "bytecode": "0x6080604052348015600f57600080fd5b506101558061001f6000396000f3fe608060405234801561001057600080fd5b506004361061002b5760003560e01c80638911be3014610030575b600080fd5b61003861003a565b005b7f28db861bde4960688848a700079928f59ab56c63969ffe58ce4846916c1d1773337340f723b762890d7fc41a85cdc160a1b166c6192d604051808373ffffffffffffffffffffffffffffffffffffffff1673ffffffffffffffffffffffffffffffffffffffff1681526020018273ffffffffffffffffffffffffffffffffffffffff1673ffffffffffffffffffffffffffffffffffffffff16815260200180602001828103825260048152602001807f416a617900000000000000000000000000000000000000000000000000000000815250602001935050505060405180910390a156fea265627a7a72315820543172f0bc3014065b2418d780cd7904fb2709118091dda65f683521747dabd964736f6c63430005100032",
  "source": "//SPDX-License-Identifier: MIT\npragma solidity >= 0.5.2;\n\n\ncontract textTrans{\n  event send(address addr1,address addr2,string message);\n\n  function sendData() public {\n    emit send(msg.sender,0x40f723B762890d7Fc41A85CDC160a1b166C6192d,\"Ajay\");\n  }\n  \n}\ncontract receiver{\n  mapping (address => string) public data;\n\n  function getData(address _add) public view returns(string memory){\n    return data[_add];\n  }\n\n\n}\n",
  "sourcePath": "/home/ajay/Desktop/BlockChain/textTrans/contracts/textTrans.sol",
  "compiler": {
    "name": "solc",
    "version": "0.5.16+commit.9c3226ce.Emscripten.clang"
  },
  "schemaVersion": "3.2.0",
  "updatedAt": "2020-10-09T13:21:33.386Z",
  "networkType": "ethereum",
  "devdoc": {
    "methods": {}
  },
  "userdoc": {
    "methods": {}
  }
}